:10000000008000206D030000550300005503000030
:1000100000000000000000000000000000000000E0
:100020000000000000000000000000005503000078
:10003000000000000000000055330000C103000074
:100040005503000055030000550300005503000050
:10005000550300005503000055030000590300003C
:1000600055030000212B000055030000550300003C
:100070005503000055030000312B0000550300001C
:100080005503000055030000550300005503000010
:100090000000000055030000550300005503000058
:1000A00055030000550300005503000055030000F0
:1000B0000000000010B5064C2378002B07D1054B3B
:1000C000002B02D0044800E000BF0123237010BDC4
:1000D000040100200000000054430000084B10B54C
:1000E000002B03D00749084800E000BF0748036819
:1000F000002B00D110BD064B002BFBD09847F9E731
:10010000000000000801002054430000000100200E
:100110000000000010B5064C0649200000F0CCF9A4
:100120000549200000F0B6F9044802F05DF9F7E750
:10013000BC0A0020B93D0000013E00008813000009
:10014000F7B50A25274C2849200000F0B5F92E0004
:100150002649200000F0B0F9254F2000390000F0BA
:10016000ABF92449200000F0A7F9234B013D1868A2
:1001700002F0A4FA21490190200000F08BF932002E
:100180000199200000F0EDF91D4B186802F096FA75
:100190001C490190200000F07DF9320001992000F7
:1001A00000F0DFF9184B186802F088FA174901903F
:1001B000200000F06FF932000199200000F0D1F921
:1001C0003900200000F078F9114802F00DF9002DF7
:1001D000BED11049200000F06FF9280001F08EFF19
:1001E000F7BDC046BC0A0020283D0000193E0000B3
:1001F0003E3D00005D3D0000200100207C3D0000F0
:1002000024010020873D000028010020923D0000CD
:1002100010270000A23D000070B50D4E0D493000C2
:10022000FA2400F049F90D25A4000B49300000F034
:1002300043F90021280001F07DFD200002F0D4F8F0
:100240002800012101F076FD200002F0CDF8ECE756
:10025000BC0A0020CB3D0000083E000010B5054B55
:100260001A7ED20703D4642001F0F8FDF7E72E22AE
:100270001A8510BD00080042E12130B5284C85B038
:100280004902200000F074FAFA20800001F0E6FD37
:100290002449200000F010F9234D2000290000F02F
:1002A0000BF92249200000F007F92900200000F096
:1002B00003F901210D2001F0C7FD01210D2001F0FE
:1002C000EDFC00210D2001F035FD194B80250024A7
:1002D000019303236D0000932A00230003940294EA
:1002E0001449154801F02EFE144B2A0001930223F5
:1002F00003940093029423001149124801F022FE56
:10030000114B2A0001930123104900930394230009
:1003100002940F4801F016FE01F036FF05B030BD23
:10032000BC0A0020193E00003E3D0000DD3D0000FB
:1003300020010020FC3D00001501000024010020E8
:10034000033E000019020000280100200A3E0000C0
:1003500041010000FEE70000034B10B51B68002BB5
:1003600000D0984710BDC0462C01002070B50F4941
:100370000F4CA14204D100F049F900F049F8FEE722
:100380000C4D00238D42F6D0CA18E818A24205D3BE
:100390009042F0D0084B0949002204E00068043381
:1003A0001060F1E704C38B42FCD3E4E700000020B7
:1003B000040100205843000004010020A83D002053
:1003C00010B502F079FF002801D100F015F810BD3A
:1003D000014B18607047C0462C01002070B5041E08
:1003E00007D0044D2E6800F011F82B689B1B9C422F
:1003F000F9D870BD3001002010B5034A13680133ED
:10040000136000F0C7F810BD30010020704770473E
:1004100010B501F099FB03F05FFBFFF7F8FF012037
:10042000FFF7DCFF084C200000F01CFE200000F06D
:1004300091FEFFF721FFFFF711FF044B002BFAD0CD
:1004400000E000BFF7E7C0463401002000000000D4
:10045000F7B506000D000C008B180193019B671B7C
:100460009C4207D0336821781B68300098470134DC
:100470000028F3D13800FEBD70B505000C00081E41
:1004800007D003F02DFC2B6802005B6821002800D8
:10049000984770BD10B5FFF7EFFF10BD10B50368AA
:1004A0001B68984710BD000010B50249FFF7E4FF34
:1004B00010BDC046173E000070B50400FFF7DCFF1A
:1004C00005002000FFF7F0FF401970BDF0B51600E1
:1004D00000228DB002AB053301900D00DA77012EBA
:1004E00000DC0A260BAC2800310003F0EFFA0F0005
:1004F000CBB228003100009303F062FAFBB237332D
:100500000500013CDBB2092F02D8009B3033DBB27F
:100510002370002DE7D121000198FFF7ADFF0DB04A
:10052000F0BDF8B506000C00151E04D10368C9B271
:100530001B689847F8BDD2B20A2D0DD12A000029B8
:100540000ADA2D21FFF7AAFF614207002A003000D6
:10055000FFF7BCFF3818EDE721003000FFF7B6FFCA
:10056000E8E770B50400FFF7DCFF05002000FFF7A7
:100570009BFF401970BD0000014B18607047C046DA
:10058000000000200122024B52421A607047C04610
:1005900000000020164A10B51368591C27D0013BF3
:1005A0001360002B23D172B6124B134A04339342CB
:1005B00008D8BFF34F8F114A114BDA60BFF34F8F4A
:1005C000C046FDE70F4A01211000147D0C42FCD00B
:1005D0002021148BFF319B085B0021431183D361E1
:1005E000094B13800123027D1A42FCD0E1E710BDC4
:1005F0000000002000000000030200000400FA05D3
:1006000000ED00E00040004102A5FFFF1E2270B592
:1006100046484749436893431C3A134343600823C1
:100620008C6923438B61434C434B9C829C8A1443CB
:100630009C82DC681442FCD00124404A1470157876
:10064000254203D055786DB2002DF8DB012494606B
:10065000547864B2002CFBDB394C5460547864B29B
:10066000002CFBDB8224E4015480547864B2002C1B
:10067000FBDB02249C840E34DD682542FCD0314C27
:10068000DC621024DD682542FCD09D8C2E4C2C436E
:100690009C841024DD682542FCD002249D8C802699
:1006A0002C439C844024DD683542FCD0DD68254223
:1006B000F9D01024DD682542FCD0002494605478E1
:1006C00064B2002CFBDB214C5460547864B2002CE3
:1006D000FBDB1C6A1E4D2C4080251C621C6AAC434F
:1006E0001C62032393601B4B536053785BB2002B57
:1006F000FBDB0023FF240B72174A4B728B72CB7209
:10070000164B1A60164B174A1B6811689A065B0154
:10071000C90E2340520F12020B431343124A138592
:10072000802342681343436070BDC04600400041CF
:10073000000400400C06000000080040000C0040CF
:1007400001050100B905FF7D040A00000007030050
:10075000FFFCFFFF03060100006CDC022C00002000
:10076000246080002060800000400042012070472B
:1007700010B50368014A1B6A984710BD13040000B6
:100780000300FC33D9699A69914203D0DB69C01830
:10079000007D704701204042FBE710B5040000696E
:1007A00002F04EFA22000023FC329361D3618622CC
:1007B0009200A4186360A36010BDF020014030399E
:1007C000484248417047F0231B011940802306200E
:1007D0009B0099420AD00133FF330130994205D082
:1007E000802302385B00994200D0002070470F2020
:1007F00001400020012903D00239481E8141481CD4
:10080000704700008923F0B5182685B002919B003F
:100810000400C05C330008214343324D1700EB183D
:10082000595601F0B3FA304B0821E05C33004343E2
:10083000EB18595601F0AAFA2C4BE25C0393022AFA
:1008400009D11133E05CFF2805D008214643AE19D9
:10085000715601F09BFA8A26B600A05DFF2819D0D8
:10086000012101F01BFA1822A35D21495A43AB561E
:10087000AD18DB0158188B21890060501D490122F9
:100880005B188C218900635069688A408D2189003A
:1008900062501A600122029B1100206902F07AFA6C
:1008A00039002000FFF78FFF390005002000FFF717
:1008B0009EFF390006002000FFF77FFF3300009005
:1008C00029002069012202F08FF90B4B2069E25CBC
:1008D000039BE15C02F0A2F9206902F0BDF905B0CA
:1008E000F0BDC046B03E0000250200002702000017
:1008F000184400411444004126020000802210B533
:1009000004005200002103F028F923000022FC33E8
:100910005A6020009A6010BDF7B51D0008AB1B7827
:100920000400009309AB1B78160001930023436079
:10093000FA239B008360114B0F00083303601430CF
:10094000FFF7DCFF20001D30FF30FFF7D7FF8923C2
:100950006A469B002761E654094B1278E554094B1F
:100960002000E2546A46084B1279E2548A22293B5D
:10097000FF3B9200A3541032A354FEBD1C3E000066
:100980002502000026020000270200000300FC33BD
:1009900058689B68C01A01D50130FF30704710B508
:1009A000040020001D30FF30FFF7F0FF0028F8D1D1
:1009B000206902F05AF910BD10B51430FFF7E6FFB8
:1009C00010BD0300FC3359689A68914204DB5A68F1
:1009D0009868801AFF30704798685B68C01A0138C1
:1009E000F9E710B51D30FF30FFF7EBFF10BD10B574
:1009F0000400006902F055F9002805D0206902F0D2
:100A000060F9206902F052F9206902F03AF90028F1
:100A100020D0206902F055F92200FC329369D16997
:100A20000133DBB28B4203D0916961180875936181
:100A30008A239B00E35CFF2B0CD020001430FFF7CF
:100A4000C0FF092806DC8B238D229B009200E3580F
:100A5000A2581A60206902F02FF900281AD020004D
:100A60001D30FF30FFF792FF002822D086239B0025
:100A7000E31899685A68914218D08E219A68490003
:100A8000A218515C9A680132D2B29A60C9B2206948
:100A900002F01BF9206902F0F9F8002805D020695E
:100AA00002F0F8F8206902F0E8F810BD012149428F
:100AB000ECE7206902F015F9ECE7000070B50400DE
:100AC00000690D0002F0F8F8002824D1FF268623E3
:100AD0009B00E3185A689968013232408A422FD14C
:100AE000EFF31083DB070DD41E4B5B68DB05DB0DDA
:100AF000EDD0103B5BB2002B19DB9B08C0331A4AC8
:100B00009B009B58206902F0D7F80028DFD0200016
:100B1000FFF76DFFDBE720001D30FF30FFF736FFEA
:100B20000028D3D12900206902F0CFF817E00F2266
:100B30001340083B9B080D4A9B009B181B68E1E78C
:100B40005A68013216409A68964205D08E215A683A
:100B50004900A21855545E60206902F0BEF80120D9
:100B600070BDC04600ED00E000E100E01CED00E0DB
:100B70000300FC33D9699A6970B5040091421AD018
:100B8000DA698218157DDA690132D2B2DA618A2314
:100B90009B00E35CFF2B0CD020001430FFF711FF0B
:100BA0000A2806DD8C238D229B009200E358A25870
:100BB0001A60280070BD01256D42E8E730B50F25A9
:100BC000CB1D013902002A40140000093034092AE3
:100BD00001DD373214001C70013B8B42F2D130BD75
:100BE00010B50400806902F0A5FFA06A02F0A2FF20
:100BF000200010BD10B50400FFF7F2FF200001F047
:100C0000EDFF200010BD000070B582291FD1C3B2D6
:100C10002C4D5A01AA1891692B4C80010C40C0211F
:100C200089052143916129490833081880215061C1
:100C30002A685B01D0180479494221430171702070
:100C4000995C8143080030210143995470BD00290B
:100C5000FCD1C024C1B21B4E4B01F3189A681A4D47
:100C6000A4052A4022439A60194A800110180A00FC
:100C700058603068072608325201115CB1430E00FB
:100C800001213143115499690D402C439C6170241A
:100C90000E495961115CA1430C00102121431154EC
:100CA00099680C4C82180C408021490321439960BB
:100CB0009968890B89039960402351790B435371DB
:100CC000C4E7C046EC050020FFFFFF8F6001002055
:100CD00020030020FF3F00F070B50400012320CC6A
:100CE00000212A782000134380222B70520002F04A
:100CF00034FFAB78DB07FCD46C6270BD1F22144B51
:100D000070B51B68590B9C0C9B0111405B0F224076
:100D10001F2900D11A391F2A00D1023A072B00D10E
:100D2000043B1F2500688E01048D0A492A4021409A
:100D300031430185018D14000A00AA432243028534
:100D4000028D1903044B13400B43038570BDC0464D
:100D5000246080003FF8FFFFFF8FFFFFEFF3108359
:100D600003600123436072B670470368002B02D111
:100D700062B6BFF36F8F704737B5056904006846E8
:100D8000002D14D1FFF7EAFF019B621D013B02D346
:100D9000D57FEDB2FAE768460193FFF7E6FF002D35
:100DA00001D100203EBD206AE369C01AFAE7FFF7CF
:100DB000D5FF22000025019B3432013B02D3157878
:100DC000EDB2FAE768460193FFF7CFFF002DE8D0B8
:100DD000206BE36AE9E70000F0B501254668037A75
:100DE00031685A018C18FF34A77AB2183D43A572B6
:100DF000C468094D9068A4042840240920439060E9
:100E000090680833800B8003906040225B01CB1810
:100E100019790A431A71F0BDFF3F00F0F7B5036975
:100E200004000E0017006846002B3DD1FFF796FF27
:100E3000019B611D013B5A1C0CD0CD7F5A1EEDB2A7
:100E4000002D05D168460193FFF78FFF2800FEBDF6
:100E50001300F0E7684601930025FFF786FFE3697A
:100E6000AF4202D0226A934257D3226A9342EDD115
:100E70000023E361013323616846FFF76FFF22001F
:100E80000021019B671D013B3532581CDAD0F977F0
:100E900010785E1E002805D0117020000193FFF726
:100EA0009BFFECE73300F0E7FFF758FF2100019BC1
:100EB0003431013B5A1C06D00D785A1EEDB2002D7C
:100EC000C0D01300F6E7684601930025FFF74DFFF9
:100ED000E36ABD4202D0226B934226D3226B934237
:100EE000B4D100236846E3622361FFF737FF270090
:100EF00022000021019B3437013B3532581CA1D020
:100F0000397010785E1E002805D011702000019302
:100F1000FFF762FFEBE73300F0E75A1CE261A269DA
:100F2000D3181B787355013599E75A1CE262A26AFF
:100F3000D3181B7873550135CAE7F7B5027A4368B1
:100F4000110004000831186849014118C879C00728
:100F500027D501255201CD719B189A6861699204C9
:100F6000920C002921D12262226A002A3ED0A26A74
:100F7000656168465A60FFF7F1FE27002100019B7A
:100F8000661D013B343735315A1C2BD0F5773A7842
:100F9000581ED2B2002A05D0019368460D70FFF7A3
:100FA000E4FEF7BD0A700300EEE72263226B002A1D
:100FB0001CD000226261A26968465A60FFF7CEFE2B
:100FC00026002100019B3436013B671D35315A1C38
:100FD00008D03570FA7F581ED2B2002ADCD10A70D0
:100FE0000300F4E768460193FFF7BFFE2000FFF718
:100FF000F3FED6E737B56B46DC1D00230D0020005D
:10100000237001F03FFF2B681818286001F0DEFF05
:10101000210001F097FF2B681818286020783EBD4A
:1010200003290ED180220E4B62311B68FF31585CC0
:10103000524202435A5468226339FF39FF329954AD
:1010400070470129FCD18022054B24311B68FF31F8
:10105000585C524202435A542339FF392822EDE7A3
:10106000EC05002070B500252F4B012104001F2046
:101070001D7000F013FE01211F2000F05BFE2B4BC2
:1010800001211E201D7000F009FE01211E2000F02C
:1010900051FE2023264A0F20D1690B43D361012240
:1010A00024490B7813430B70234B19788143197033
:1010B00006211D782943197020490D782A430A70AA
:1010C0001A7802401A70602219780A431A701C4B71
:1010D0001C4A5A805A78D209FCD11B48FFF778F98C
:1010E0001A4D2800FFF7F8FD2800FFF707FE7F21C3
:1010F0002B68C1201A7880000A401A7004221978DF
:101100000A430C211A701A898A4311491A810A5814
:101110001202120A0A5080220A6019787E3A0A43A3
:101120001A700123237070BD550100205401002066
:1011300000040040584400413C44004159440041EF
:10114000000C004006400000291B0000EC050020B8
:1011500000E100E00078002810D00121084B1B6856
:101160001A898A431A810822198B0A431A83042296
:10117000198B0A431A830022024B1A607047C0463B
:10118000EC050020E405002010B50F4A93699B0B85
:101190009B03936113680222FF331A729879823A93
:1011A00002439A711A7A9207FCD57F24074A21409C
:1011B000937A0800A3431900802301439172917A26
:1011C0005B420B43937210BDEC05002000500041C0
:1011D00010B50B790C00002B0CD1080001F060FE5B
:1011E000002801D0012010BD094A93699B0B9B0385
:1011F0009361F7E701F0EAFE210001F0D6FE002836
:10120000F0D1034A93699B0B9B039361EBE7C046C4
:10121000EC050020F7B50D00832A19D1CBB2334C71
:101220005A01A21891693248AD010840C0218905D0
:10123000014391612F4920684D1970210833556190
:101240005B011A5C8A43110040220A431A54F7BD1D
:10125000022A45D1284A8B009858002802D00368FA
:101260001B699847382001F0B5FC244B80270360A8
:1012700000231E4E7F00421D036203614361C36170
:1012800046608560C760D3772F32C3620363040072
:1012900013703800537002F043FC0190A0613800D5
:1012A00002F03EFCEBB25A01A062B21891681048FD
:1012B00008330840C0218905014391603168072641
:1012C0005B01585CAD00B043060003203043585426
:1012D000019B20005360FFF77FFD074B5C51B6E791
:1012E00011002800FFF790FCB1E7C046EC05002094
:1012F000FFFFFF8F6001002038010020583E0000F2
:1013000070B505000124064BA200D258002A05D072
:1013100021002800FFF77EFF0134F4E770BDC046CE
:1013200004000020084B8A00D05810B5002803D0D4
:1013300003689B68984710BDC9B2044B490159180E
:1013400088688004800CF6E738010020EC05002056
:1013500010B50C00FFF7E6FF00280CD0064BE4B2F6
:101360001B68083464011C19802362795B421343B3
:1013700063710223E37110BDEC05002070B5134BBF
:10138000CCB2134A60018901591813185960996841
:10139000104D08340D408021890229434025996071
:1013A0009968890B8903996011686301CB181E79CC
:1013B00035431D719D796D06FCD564010919CB7902
:1013C000DB07FCD512189068C0B270BD2003002066
:1013D000EC050020FF3F00F070B5140040220B4BDD
:1013E0000D001B68FF3359790A435A710021FFF73A
:1013F000C5FFA04200D9200000230549A34203D025
:101400005A5CEA540133F9E770BDC046EC05002090
:101410002003002010B5C9B20B4849014218936857
:101420009B049B0C3F2B0BDD9468403B9B04A40B5F
:101430009B0CA4032343936041188868C0B210BD7D
:1014400093689B0B9B03F6E7EC050020F0B51C00AE
:10145000304B85B01B6806000D000192002B55D063
:101460002D4F3978C9B2002902D11E2000F062FC4C
:1014700064233B70294BAA00D058002808D0036889
:1014800022005B68019998470400200005B0F0BD78
:1014900029003000FFF746FF844204D929003000BC
:1014A000FFF740FF040029003000FFF7B3FF0121E0
:1014B000EBB21B4F03935B010293029A3B680198C6
:1014C0009B18FF335A7A0A4316495A72AB01C9185E
:1014D000220002F039FB002CD7D029003000FFF7A2
:1014E00021FF0028D1D14021039B3A6808335B01DA
:1014F000D3181879014319710121D9710121029B77
:10150000D318FF339A7A0A439A72BEE701246442E1
:10151000BBE7C046E405002054010020380100204C
:10152000EC0500202003002013B56B46DC1D2200D3
:101530000123FFF78BFF012801D1207816BD012080
:101540004042FBE7F0B51E003A4B85B01B680F0028
:101550000192002B3FD08023DB019E423BD8364CCA
:101560002178C9B2002902D11F2000F0E3FB6423D7
:101570000025324A2370BB01D3180293002E2CD0D1
:101580002F4B1B680393FF233B401C000093083440
:10159000039B64011C19A379DB0921D0294B2A493B
:1015A000186802F00DFA294B1721584302F008FA87
:1015B000274BE279920713D4DA5D002A01D1013872
:1015C000F7D20122DA55009B5A011D4B9B189A69EC
:1015D000920B92039A6101256D42280005B0F0BD7F
:1015E00000221B4B3400DA553F2E00D93F24220045
:1015F0000199029802F0A8FA009BA1045A01104B2D
:10160000890C9B18029A2D195A619A69361B920B04
:1016100092030A439A61009B039A08335B01D31833
:101620000222DA715979823A0A435A71019B1B19D5
:101630000193A3E7E405002055010020600100208C
:10164000EC0500202C00002040420F00701101002A
:101650005701002070B50D001C000D4EAB01F618AF
:1016600011003000220002F06FFAEDB209496D015D
:101670004D196E61AB69084A20001340AB61AB693C
:10168000A2049B0B920C9B031343AB6170BDC0463D
:1016900060010020EC050020FF3F00F0F7B5104B83
:1016A00001901B780F001500002B0CD10D4B16007C
:1016B0001C78002C09D00C4E0C4834880019641991
:1016C00002F042FA34802800FEBD002EFBD03A1909
:1016D000330000210198FFF7BDFF2418361AF4E704
:1016E000E0040020E1050020E2050020E1040020E4
:1016F000F8B5002000AF0E001500012A26DDD31D2D
:101700006A46DB08DB00D31A9D46080002F0E8FABF
:101710006C460323002101304000207063705A1E84
:10172000D2B295420BDD3078002808D00136A054A3
:101730009D4203D0E1540233DBB2F0E72A002100DE
:101740000348FFF7ABFF431E9841C0B2BD46F8BD4A
:1017500034010020F0B50027012687B01E4B009110
:1017600002A91E7005000297FFF744FC03AC01902C
:1017700009223900200002F0F0F909232370022326
:1017800063709E33E3715A332372029B667109338F
:1017900063806B461B7923710F4B1F70009B092BD5
:1017A00007D11A0021002800FFF778FF012007B0B9
:1017B000F0BD0A4B09221E70094E21002800029735
:1017C0003780FFF76BFF02A92800FFF713FC034BDC
:1017D00032881F700349E6E7E0040020E10500209D
:1017E000E2050020E104002070B5CE7892B005003B
:1017F0000C00022E08D1C9882B48FFF7ABFF431E0F
:101800009841C0B212B070BD01F0E0FB210001F0C0
:10181000ADFB002803D0C317181AC00FF2E7012E42
:101820000BD1E2882149112A10DCD2B2002A0DD056
:101830002800FFF733FF0120E4E7032EE2D1A3786D
:10184000002B05D1E2881A49032AEEDD0A78EFE77A
:10185000022B05D1A27917492800FFF749FFD1E7EC
:10186000012B02D1A2791449F6E7032BCAD1134BFD
:1018700001A91868FFF7A2F9114B03A91868FFF72F
:101880009DF9104B05A91868FFF798F90E4B07A9A9
:101890001868FFF793F901F099FB09A901F076FBAD
:1018A000A27901A9D8E7C046340100208C3E00008F
:1018B0007C3E00006C3E0000803E00000CA08000DA
:1018C00040A0800044A0800048A0800073B50600BE
:1018D00048780D000B2811D802F068F8061D102E6C
:1018E000104348704C4F696C097801AA002907D150
:1018F0000223117051703000FFF7ACFE012076BD5D
:101900000023137053702E4B1B78012B00D11370E2
:1019100002230021EFE78A780023012A04D101AADB
:1019200013705370274BEFE7254A1370264A9369CB
:101930009B0B9B039361E1E78C78012C06D100217E
:10194000204B01AA1C7011702300D4E7002C08D191
:1019500001201B4B1C4A187093699B0B9B039361DE
:10196000CDE7A9783000FFF70FFCC7E73000FFF79D
:101970003BFFC4E70123154ACBE70B780020DB06C9
:10198000BDD13000FFF7BCFC2A200221AA780F4B02
:10199000FF301A600C4A13681C5C21434A24195416
:1019A000FF34195D2938FF3801431955D4E7012365
:1019B000074AAEE78A78064B1A60B7E700209EE731
:1019C000560100205E010020EC050020E405002007
:1019D000E80500204C4BF7B51C780700002C00D020
:1019E0007DE04A4E33689B8B1B070ED521002000FB
:1019F000FFF70AF9326810231100FF31887A034398
:101A00008B72434B1C600823938333689A8B520775
:101A10001FD504229A833F4A1378002B0AD01378EB
:101A2000013BDBB213701378002B03D101211F207F
:101A300000F080F9384A1378002B0AD01378013B64
:101A4000DBB213701378002B03D101211E2000F0AC
:101A500071F93368FF331A7AD20620D510221A7230
:101A6000597930320A435A7160232C4938000A7878
:101A70001A4235D1FFF72AFF002834D0802233687C
:101A80005242FF3399790A439A713368FF331A7AC5
:101A9000520604D540221A72597A0A435A723368A0
:101AA00000251C8C01239C43E4B20193E9B2002C75
:101AB00015D023002B41019A13420DD02B00326820
:101AC00008335B01D318DA79D20713D4DB799B078B
:101AD00010D4019BAB409C430135092DE6D1F7BDE5
:101AE000FFF776FBC8E720220D4BCDE703681B68A4
:101AF0009847EEE70B4BAA00D0580028F6D13800E3
:101B0000FFF78EFAE5E7C046E1050020EC0500206E
:101B1000E40500205501002054010020200300208E
:101B2000FF5000413801002010B50248FFF752FF76
:101B300010BDC04634010020014A024B1A607047B4
:101B400000500041EC050020FA21314B10B5186817
:101B5000890001F035FF2F4B0138984256D82E49A5
:101B60002E4A4860C020136A00061B021B0A03436A
:101B70001362002407238C600B608021136A09061E
:101B80001B021B0A0B431362FC22254B196A0A43F2
:101B90001A62FC22196A92010A431A62A022196A87
:101BA000D2020A431A6220000021013400F076F8C4
:101BB000132CF8D11B4B1C005A7852B2002AFBDBC5
:101BC000194A5A80194B1A00597EC9090129FBD0BC
:101BD000E421C90099803F21D970537EDB09012B94
:101BE000FBD0C02300205B011361907000F024F84B
:101BF00063785BB2002BFBDB0D4B0E4A6380D3791D
:101C0000DB09012BFBD04123537010BDFEE7C0461A
:101C10002C000020FFFFFF0010E000E000ED00E0DE
:101C200000040040000C00401E4000000040004244
:101C30002140000000480042164A00B51300517EC2
:101C4000C9090129FBD00138042816D81969124A9C
:101C50000A400F211A615A788A4301F0A7FE03084F
:101C6000060B0300110001220A435A7000BD110047
:101C70000322F9E711000222F6E7F02311691B05A0
:101C80000B430F21136153788B43190002230B433D
:101C90005370EBE700400042FFFFFFF0182330B520
:101CA0001D00040045430820204A551928560130DC
:101CB00014D0032912D808006343D156D31801F079
:101CC00075FE02280E1B5868CB010221184A9B188A
:101CD0001A1840321170012282405A6030BD586893
:101CE000CB010621124A9B181A18403211700122AA
:101CF00082405A609A61F1E75868CB0106210C4A8C
:101D00009B181A1840321170012282405A605A61A1
:101D1000E4E75868CB010221054A9B181A184032A3
:101D20001170012282409A60D8E7C046B03E0000A0
:101D3000004400411823F0B508245843114A1318F1
:101D40001C5701341BD0012635005F688356BD4007
:101D50000D4ADB019A18906828420BD10C00601ED6
:101D60008441D2194032107834400336A400B04385
:101D700020431070044A9B18002901D15D61F0BD19
:101D80009D61FCE7B03E000000440041F8B503004F
:101D9000182058432A4A1018007A40B20400013033
:101DA00013D0481C00240C280FD801F0FFFD451C5F
:101DB0001C1C1C1C1C1C1C0707070700092906D13A
:101DC00000211800FFF76AFF00242000F8BD0A294F
:101DD00001D10839F5E700240B29F6D10A3918009A
:101DE000FFF75CFFF1E718204343D0184668012550
:101DF0003400D2561348D20112187308D318303366
:101E00002C401878002C0BD00F24090120400143EE
:101E1000C9B292191970403213781D431570D3E777
:101E20000F27B84301439219C9B219701300403308
:101E30001A7815431D70C8E701246442C5E7C046FF
:101E4000B03E000000440041024B1860024B196094
:101E50007047C04630000020F0060020FA235B01E6
:101E600058430023834200D17047C0460133F9E74D
:101E7000F8B5104D060001212868FFF70FFF002478
:101E8000B44204DBFA208000FFF7E8FFF8BD0A4FF8
:101E900028683968FFF74EFF6420FFF7DFFF3968D5
:101EA00028684B425941FFF745FF6420FFF7D6FFF2
:101EB0000134E5E730000020F006002010B50320D3
:101EC000FFF7D6FFFBE710B50120FFF7D1FFFBE7D7
:101ED000074A13681968074B002903D101225242AF
:101EE0001A6070471268D268D2685268F8E7C04634
:101EF000F8060020F80700200D4B10B51A68040002
:101F000050600C4A1268904206D20B4A1068196859
:101F1000043101F07DF910BD084A106819680431D8
:101F200001F076F9064B1A689442F4D21C60F2E78D
:101F3000F406002040080020FC060020F8060020DF
:101F4000F8070020F0B585B0060001911400039356
:101F5000002802D172B6FFF7B1FF0A9B082B02D905
:101F600072B6FFF7ABFF0C9D002D05D1A00001F06C
:101F700095F8051E00D197E0542001F08FF8071E58
:101F800000D18EE0A40005632200A521280001F005
:101F9000E4FD3B6B043C1C1907239C430023029483
:101FA000019AD15C1A003432B954019AD25C002AE9
:101FB00002D00133082BF3D13B0000240A9D3B33B0
:101FC0001C70082D00D908253B1D1800FD627D649A
:101FD000BC64019301F00DF93800183001F009F9E3
:101FE00009235D1B3B0050333F61BD617F62FC6490
:101FF000039A1C703100029801F04EF90B9B386077
:10200000002B00D01F6001F06DF92E4B2E4C1A688A
:102010002E4D01321A602268002A48D127601B68C1
:10202000012B1CD12E00300001F0D8F8284B1436BB
:10203000B342F8D1274801F0D1F8274E300001F023
:10204000CDF8264801F0CAF8254801F0C7F8254820
:1020500001F0C4F8244B1F4A1A60244B1E60244A26
:10206000136801331360234AFB631168FB6A8B42D8
:1020700000D91360142058430199281801F0BCF8C6
:1020800001F03CF91C4B01251B68002B06D023688E
:102090000A9ADB6A9A4201D901F018F9280005B0C2
:1020A000F0BD280001F068F801256D42F6E7124BFB
:1020B0001B68002BD3D123680A9ADB6A9A42CED3DD
:1020C0002760CCE7B4070020F406002000070020BA
:1020D000B4070020CC070020E00700200008002003
:1020E0002C08002018080020F8060020FC0600201C
:1020F000C0070020C80700201408002070B50400A5
:1021000001F0F0F8002C01D1194B1C68251D2800A6
:1021100001F095F8A36A002B03D02000183001F0DD
:102120008EF82900134801F067F8134A1368013349
:102130001360124A13680133136001F0DFF8104B8B
:102140001B68002B0CD00A4B1B689C4209D10D4B1D
:102150001B68002B02D072B6FFF7B0FE01F0B6F894
:1021600070BD01F0BFF8FFF7B3FE01F0C7F8F7E765
:10217000F40600202C080020C4070020C00700201F
:1021800014080020BC0700201FB50024114B039445
:10219000019302940094230096220F490F48FFF701
:1021A000D1FE01280FD100F077FB01280BD172B6C8
:1021B00001220B4B52421A600A4B18600A4B1C60FA
:1021C00001F0FCF81FBD0028FCD172B6FFF776FEC7
:1021D000F8E7C046F40700209E3E000035240000CA
:1021E000F80700201408002040080020024A136865
:1021F000013313607047C046BC07002010B501F0E2
:1022000071F8034B1C6801F079F8200010BDC0463E
:1022100040080020354BF7B51B68002B47D1344BE5
:102220001A6801321A601F68002F12D1314C2368DE
:102230001B68002B02D072B6FFF740FE2E4B2268BF
:10224000196821601A602D4A136801331360FFF783
:102250003FFE2B4E002533689F4235D3254B1A682D
:102260001268002A29D101235B422CE0231D1800AB
:10227000019300F0E4FFA36A002B03D02000183084
:1022800000F0DDFF1F4BE06A1A68904200D9186029
:10229000142358431C4B211D181800F0ADFF1B4B95
:1022A000E26A1B68DB6A9A42D8D30125D6E7184A4E
:1022B000002513680133136010E01B68DB68DC68DD
:1022C00063689F42D2D23360104B1B68DA6A1423D2
:1022D00053430D4AD358012B00D901250D4B1B68E0
:1022E000002B00D001252800FEBDC046BC07002001
:1022F00040080020F8060020FC060020FC07002013
:10230000F8070020C807002000070020F40600207E
:10231000B807002044080020F8B52B4C2368002B98
:1023200002D172B6FFF7CAFD00F0DCFF2368013B63
:1023300023602368002B04D0002400F0DFFF20007E
:10234000F8BD224B1B68002BF6D0142601271DE098
:10235000DB68DC682000251D183000F070FF2800C5
:1023600000F06DFF1A4BE06A1A68904200D91860BD
:102370007043184B2900181800F03EFF164BE26A14
:102380001B68DB6A9A4201D3144B1F60144B1A6816
:10239000002ADDD1134C2368002B13D10F4B1C688E
:1023A000012CC9D100F092FFC7E7FFF733FF0028E7
:1023B00001D00A4B1D602368013B23602368002B7A
:1023C000F3D1EBE70125F9E7BC070020B4070020B3
:1023D000C807002000070020F40600204408002061
:1023E00000080020B807002010B5041E02D100F03C
:1023F0006DFF10BD0C4B1B68002B02D072B6FFF7AF
:102400005DFDFFF7F3FE094B1B68E418084B1868E5
:10241000043000F014FF2000FFF76EFDFFF77CFF93
:102420000028E6D1E3E7C046BC07002040080020B2
:10243000F406002070B5164C2368002B08D1154B0C
:102440001B68012B01D900F041FF00F0C3FEF2E749
:10245000FFF7CCFE104D2E68FFF75EFF002EEAD08E
:1024600000F040FFEB68DD68281D00F0E8FE0B4A35
:102470001368013B13602368013B236000F03EFFBB
:10248000286B00F079FE280000F076FED3E7C04606
:10249000C4070020000700202C080020B4070020FB
:1024A000174B70B51A68174B002A02D001221A6028
:1024B00070BD14241A60144D144B2A686243D2581C
:1024C000002A12D02D686C4319194A6808345068E4
:1024D0001C194860A04201D142684A6014226A4334
:1024E0009B185B68DA680A4BE1E72B68002B02D186
:1024F00072B6FFF7E3FC2B68013B2B60DBE7C046BD
:10250000BC07002044080020C80700200007002066
:10251000F406002070B506000C00002802D172B647
:10252000FFF7CCFC0B4D30002968183100F070FE2D
:102530002868043000F083FE631C05D12968064832
:10254000043100F059FE70BD044B18682018FFF7E5
:10255000D3FCF8E7F406002018080020400800200B
:10256000F8B507000D001600002802D172B6FFF77B
:10257000A5FC0C4C38002168183100F03DFE2068A5
:10258000043000F05CFE012E05D1216806480431BC
:1025900000F032FEF8BD054B18684019FFF7ACFC9F
:1025A000F8E7C046F4060020180800204008002084
:1025B000C36870B5DC68002C02D172B6FFF77EFCF0
:1025C00025001835280000F03AFE114B1B68002B3F
:1025D0001BD1251D280000F032FE0E4AE36A116867
:1025E0008B4200D913601420290043430A48C018C5
:1025F00000F002FE094BE26A1B680020DB6A9A4287
:1026000002D9074B0130186070BD29000548EFE77B
:10261000BC070020C807002000070020F4060020A7
:10262000440800200008002010B5041E02D172B634
:10263000FFF744FC034B1B682360034B1B6863607C
:1026400010BDC046FC0700204008002070B5040003
:102650000D00002802D172B6FFF730FC002D02D128
:1026600072B6FFF72BFC00F03DFE0F4B00261968F9
:102670002B685A1C13D00D4A26681068626886427F
:1026800002D0012691420AD2881A0126834206D935
:102690005B1A9B182B602000FFF7C6FF002600F096
:1026A0002DFE300070BDC04640080020FC07002011
:1026B0000122014B1A60704744080020002801D114
:1026C000064B1868026B13001978981AA52902D0D6
:1026D000800880B270470133F6E7C046F406002058
:1026E000054B01201B68002B04D0044B18684342A3
:1026F000584140007047C04614080020BC07002025
:10270000F8B5041E26D0164FC16A3B68DB6A9942B1
:1027100020D28369002B04DB09223B68DB6AD21AD2
:10272000826114234B430F4E6269F3189A4212D10F
:10273000251D280000F083FD3B680B4ADB6A116809
:10274000E3628B4200D913601420584329003018EB
:1027500000F052FDF8BD3B68DB6AE362FAE7C04671
:10276000F406002000070020C807002070B5041EF2
:1027700001D1002070BD164B1B68984202D072B682
:10278000FFF79CFBA36C002B02D172B6FFF796FB00
:10279000A36CE26A616C013BA3648A42E9D0002B1E
:1027A000E7D1251D280000F04AFD0923606C1B1AA3
:1027B000A361084BE0621A68904200D918601423A4
:1027C000434305482900C01800F016FD0120D1E759
:1027D000F4060020C807002000070020044B1A68F8
:1027E000002A03D019688A6C01328A64186870471D
:1027F000F4060020F8B500F075FD124C2568002D98
:102800001CD1114F380000F0E9FC104E300000F0F0
:10281000E5FC0F4B2A001F600E4B0C2105201E60AB
:1028200000F0D8FE2060002802D172B6FFF746FB08
:102830002068002802D0084901F086F800F05EFD0B
:10284000F8BDC0467C080020500800206408002025
:10285000480800204C080020A33E000010B541604D
:10286000006191420CD8D21A836901249A4205D2A0
:10287000074B011D186800F0CBFC0024200010BDA0
:102880009A4202D201249942F8D2011D014BF1E78C
:102890004C080020480800201FB5FFF7ABFF0C4B89
:1028A0001B68002B05D172B6FFF708FB002005B0AE
:1028B00000BD0023022203930092029301934E3243
:1028C00004490548FFF73EFB0028F0D1EBE7C0467E
:1028D0007C080020A83E00009D290000F0B587B0CC
:1028E00006000D0001921F00002802D172B6FFF70A
:1028F000E5FA0F4C23689C46181E10D0019B0395E7
:1029000004930596052D0CDCFFF7EAFE00230C9AD4
:10291000022800D01A0003A9206800F087FE07B043
:10292000F0BD00233A0003A9604600F01AFFF6E765
:102930007C080020F7B5174D2B681A68002A04D1CF
:10294000154A116813602960F7BDDB68DC681E68F2
:10295000271D380000F073FC636A20009847E36984
:10296000012BE8D1A369F3189E4206D2636024616B
:102970003900286800F04CFCDDE7002132000091AE
:102980000B002000FFF7AAFF0028D4D172B6FFF792
:1029900095FAD0E7480800204C080020F0B589B02F
:1029A00000255B4E33681A680392AA4201D0DB68A7
:1029B0001D68FFF71BFCFFF721FC564F02903A6899
:1029C0000024904202D2FFF7B5FF0134029B3B6026
:1029D000002C6BD1039B002B55D0029B20009D4205
:1029E00056D8FFF799FC3368DB68DE68301D00F0CD
:1029F00026FCF369012B14D1B369029AE91830005F
:102A00002B00FFF72BFF01280BD1009423002A0095
:102A100021003000FFF762FF002802D172B6FFF7F5
:102A20004DFA736A3000984700233B481A0005A905
:102A3000006800F0E6FE0028B2D0059B002BF3DB17
:102A4000079C6369002B02D0201D00F0F8FBFFF704
:102A5000D5FB3B680500984201D2FFF76BFF059B51
:102A60003D60092BE0D8012284269A40B60013006D
:102A700016403DD1C72213421BD19B06D4D520005E
:102A800000F07AFBD0E7254B1B681A685042504192
:102A9000029B0200E91A204B186800F067FFFFF75D
:102AA0003BFC0028C0D100F011FCBDE7FFF734FC6F
:102AB000BAE7069BA269200099182A000293FFF743
:102AC000CDFE0128B0D1636A20009847E369012B4D
:102AD000AAD1A369069A0096D218310033002000CB
:102AE000FFF7FCFE00289FD172B6FFF7E7F99BE7DE
:102AF000069BA361002B02D172B6FFF7DFF9A36931
:102B00002A00E91820002B00FFF7A8FE8CE7C0463A
:102B100048080020780800207C0800204C0800208D
:102B200010B50248FDF763FF10BDC046BC0A002087
:102B300010B50248FDF75BFF10BDC04680080020BD
:102B4000F7B501240326154F1549380000F04AF85F
:102B50001449154800F046F81449154800F042F8A9
:102B60001449154800F03EF81449154800F03AF8A9
:102B7000144D1549280000F035F83900009623005F
:102B8000019400221148FDF7C7FE00962900019428
:102B9000232324220E48FDF7BFFEF7BDF80C0020CA
:102BA00000080042000C0042FC0C00200010004213
:102BB000000D002000140042040D00200018004207
:102BC000080D00200C0D0020001C0042BC0A002053
:102BD0008008002010B500F0A3FF10BD10B500F074
:102BE000A9FF10BD01607047F0B505AC25780468F9
:102BF000981E471EB84126689207000632430243DA
:102C0000072022600140AD01626829430020022BA9
:102C100000D05803114301436160F0BD10B5C024DA
:102C20000368A4031868120522400243C020090467
:102C300080020140114319605A681043586010BD6A
:102C40000122036819680A431A601A68D207FCD483
:102C5000DA69D207F9D470470222036819680A4377
:102C60001A60DA699207FCD4704703681A7ED207AB
:102C700002D41A7E9207FCD57047002203685A835B
:102C800070470368187E4007C00F70470368187EBE
:102C9000C0097047802302685B42117E0B431376A4
:102CA00070470368588B8007C00F70470223026883
:102CB000518B0B43538370470368187EC007C00FC6
:102CC00070470368188DC0B2704703681A7ED20738
:102CD000FCD589B2012019857047012203689A75D5
:102CE0007047012203681A75704700000368214A83
:102CF00030B5934211D0204A93422FD01F4A9342BD
:102D00002FD01F4A93422FD01E4A93422FD01E4AE3
:102D1000934222D10E23192201E00923142201211A
:102D2000032599401948C024016099082B40AB4005
:102D3000FC359D4089000918A4000859A843C02506
:102D40009D402B0003430B518023DB011A43104BA2
:102D50005A805A7852B2002AFBDB30BD0A23152272
:102D6000DDE70B231622DAE70C231722D7E70D2322
:102D70001822D4E700080042000C00420010004274
:102D80000014004200180042001C004200E100E074
:102D9000000C0040F8B5040016000F001D00FFF7FE
:102DA000A5FF2000FFF74CFF1C22BB001340720759
:102DB0002468120C134323608423A375012F18D1B8
:102DC0001021012E00D008390A4B69431868C00051
:102DD00000F0F6FD0722A3890240DB045203DB0C5E
:102DE0001343A3810304A089DB0C400B4003184369
:102DF000A081F8BD2C0000203F20704713B56B4622
:102E00000268D9710733546819000122A04716BD22
:102E100010B502210069FEF785FA10BD10B5032137
:102E20000069FEF795FA10BD10B5130004000A0002
:102E300000690321FEF786FB002801D101236360AE
:102E400010BD000010B5054C23685A1C04D103685E
:102E50005B69984703002060180010BD84000020C3
:102E6000074B0200186810B5411C03D001225242E2
:102E70001A6010BD02211069FEF756FBF9E7C04643
:102E80008400002010B50378422202330370024907
:102E90000248FEF703FC10BD400000203401002072
:102EA00010B50178030042780020A12908D1212A19
:102EB00005D11A3A16491748FEF7F0FB012010BD5C
:102EC0002129FCD1202A11D1193A11491148FEF7C4
:102ED00083FA96220E4BD2001968914203D1012445
:102EE000D87904400ED0FDF74DFB0EE0222A03D125
:102EF0009A78074BDA71ECE7232AE0D15A88064B1F
:102F00001A60DCE7FA20FDF737FB0020D7E7C04660
:102F1000380000203401002034000020FA22002173
:102F2000054B92009A60054A596008321A60044ABB
:102F300019761A617047C046100D0020304300001A
:102F40003401002070B50E0000254468002C0BD021
:102F5000236831005B6820009847002802DB2D18A9
:102F6000E468F3E701256D42280070BD70B50D00DF
:102F70004468002C08D0236829009B6820009847EB
:102F8000002802D1E468F4E7200070BD70B50D00A0
:102F90004468002C07D0236829002000DB6898478C
:102FA000E4682D18F5E72C7070BD70B50D0044680D
:102FB000002C08D0236829001B68200098470028AF
:102FC00002D1E468F4E7200070BD00000121064A48
:102FD00010B5136805480B4005D10224047024196C
:102FE00044704360116010BD2C0D0020300D002096
:102FF0000723124A1A421ED0D1189943C0239B01BD
:10300000D218531A0A0000210D48D31841600260FB
:103010000720083B834319605960991A1360516077
:103020008022084812060360074B1960074B19609D
:10303000074B1A607047C0239B01E4E73C0D00205A
:10304000483D0020380D0020443D0020403D002038
:103050003C3D002010B50F4B1A68824218D35C68C3
:103060001919884203D1416818000919596041684B
:103070004418A24207D1084C2468A24203D05468E5
:103080001268611841600260984200D0186010BD5B
:103090001300E1E7483D0020380D0020F7B504009B
:1030A000FFF7A4F82F4B1B680193002B01D1FFF70A
:1030B0009FFF00262C4B1B6801932340B3423ED157
:1030C0001E00002C3BD0072308341C4201D09C4337
:1030D00008340026B44232D0244F3B689C422ED89C
:1030E000234B1D686A68944236D81E490026096839
:1030F0008D4224D01E68296808361960121B102AD8
:103100000ED92B1901935B0702D072B6FEF7D6FEDB
:103110006B682A191B1B536001986C60FFF79AFFBC
:1031200014493B686A6808689B1A3B60834200D276
:103130000B600D4B1B6813436B6000232B60FFF784
:10314000EBF8002E01D1FEF7BEFE730702D072B677
:10315000FEF7B4FE3000FEBD29680029C5D02B0063
:103160000D00BFE7380D00203C3D0020403D002011
:10317000483D0020443D002070B5002824D0134D68
:1031800008382B6842680400134202D172B6FEF779
:1031900095FE2368002B02D072B6FEF78FFE63689F
:1031A0002A681A4210D0216800290DD19343636028
:1031B000FFF71CF8064A6368116820005B1813606B
:1031C000FFF748FFFFF7A8F870BDC0463C3D002060
:1031D000403D002010B5FDF741F810BD030001226D
:1031E00008334360C360036100235242826003607E
:1031F000704700230361704743689A684B608A6098
:103200009A685160996003680861013303607047F0
:1032100003000A6830B50833541C0BD103695A689F
:103220004A6091608B6059600368086101330360F4
:1032300030BD23005C682568AA42FAD2EFE74168F6
:10324000826803698A60826851605968884200D147
:103250005A60002202611A68501E18607047000010
:10326000064A13681868203080F30988022080F32A
:1032700014883FBCAE4662B600BDC046F4060020CE
:10328000044B10B51B68013302D072B6FEF716FE70
:1032900072B6FEE7503D002010B58024031F640481
:1032A0001C60043B19600349043B1960143B40381F
:1032B0001A6010BD81320000034B10B51B68002B53
:1032C00000D09847002010BD603D00208022044BB4
:1032D00052051A60BFF34F8FBFF36F8F7047C04620
:1032E00004ED00E072B6044A136801331360BFF3C3
:1032F0004F8FBFF36F8F7047503D002010B5074CC4
:103300002368002B02D172B6FEF7D8FD2368013B7B
:103310002360002B00D162B610BDC046503D002096
:10332000EFF3108072B67047002080F3108870476A
:1033300010B5FFF7F5FF0400FEF76CFF002803D07F
:103340008022034B52051A602000FFF7EEFF10BDEC
:1033500004ED00E0EFF309800E4B1A68203810608E
:10336000F0C044464D4656465F46F0C008B572B6BA
:10337000FFF796F862B60CBC116808681030F0C808
:10338000A046A946B246BB4680F309882038F0C85B
:103390001847C046F40600200022044B1A60044A75
:1033A000044B1A600722044B1A60704718E000E0D3
:1033B0007FBB000014E000E010E000E00B4A0C4B83
:1033C00010B51A60FF220B4B1204196800240A433F
:1033D0001A60FF22196812060A431A60FFF7DCFF21
:1033E000054B1C60FFF73CFF200010BD313300008F
:1033F000603D002020ED00E0503D002070B515003C
:10340000026C0400002A0CD10568002D01D00020B8
:1034100003E04068FFF7AAF96560A36B0133A3637B
:1034200070BD002D0CD1806800F08EFBA368226C6B
:103430009B186268A3609342E9D32368A360E6E720
:10344000C06800F081FB236CE2685B422168D218FF
:10345000E2608A4202D26268D318E360022DD6D1BC
:10346000A36B002BD3D0A36B013BA363CFE773B552
:10347000446D01900E00002C02D172B6FEF71EFDC5
:10348000A36BE26B934202D372B6FEF717FDA36BF8
:10349000E26B0025934212D2320001A92000FFF70F
:1034A000ADFFA36C050001330BD1636A002B06D07E
:1034B00020002430FFF77CF8002800D001252800E8
:1034C00076BDA36C0133A364F9E703001A6C10B551
:1034D0000800002A0AD0D9685C688918D960A1421E
:1034E00001D31968D960D96800F02EFB10BD10B562
:1034F0000400FFF7F7FEA36C002B0FDC01235B42F7
:10350000A364FFF7FBFEFFF7EDFE636C002B1EDCF0
:1035100001235B426364FFF7F1FE10BD636D002B76
:103520000BD000212000FFF7A2FF012801D1FFF7F7
:10353000BFF8A36C013BA364DDE7636A002BDDD019
:1035400020002430FFF734F80028F2D0EFE7236999
:10355000002BDDD020001030FFF72AF8002801D022
:10356000FFF7A6F8636C013B6364CEE770B5040017
:103570000D00002802D172B6FEF7A0FCFFF7B2FEE4
:10358000216CE36B22684B43D0185B1AD318E360BD
:103590000123606000205B42A063A2606364A364B7
:1035A00085420ED12369834207D020001030FEF7F8
:1035B000FFFF012801D1FFF789FEFFF79FFE0120E1
:1035C00070BD20001030FFF709FE20002430FFF707
:1035D00005FEF2E7F8B506000D001700002802D13D
:1035E00072B6FEF76BFC0020854202D028007043C3
:1035F00001305830FFF752FD041E13D0002D0DD1BD
:103600002060E663256401212000FFF7AFFF23005F
:1036100050331F70002363652000F8BD030058334A
:103620000360EEE772B6FEF749FCF5E7F0B585B04A
:103630000400009101921D00002802D172B6FEF72D
:103640003DFC009B002B03D1236C002B00D080E0BD
:10365000022D03D1E36B012B00D07EE0FFF740F891
:10366000002805D1019B002B02D072B6FEF726FC84
:10367000002745E0636A002B04D020002430FEF7C9
:1036800097FF51E0002853D050E0019E002E03D157
:10369000FFF734FE00204EE0002F02D102A8FEF713
:1036A000C3FFFFF72BFEFEF7A1FDFFF71BFE636CC8
:1036B000013301D100236364A36C013301D10023E2
:1036C000A364FFF71BFE01A902A8FEF7BFFF0028B5
:1036D00039D1FFF707FEA76BE66BFFF70FFEB74286
:1036E0002BD1200001991030FEF714FF2000FFF7C6
:1036F000FEFEFEF711FE002801D1FFF7E7FD0127CE
:10370000FFF7F0FDA36BE26B934201D3022DBCD116
:103710002A0000992000FFF771FE636D002BA9D0ED
:1037200029002000FFF7A3FE012801D1FFF7CEFDFD
:10373000FFF7E4FD012005B0F0BD2000FFF7D7FE44
:10374000FEF7EAFDDBE72000FFF7D1FEFEF7E4FD20
:10375000A0E772B6FEF7B2FB7AE772B6FEF7AEFBF1
:103760007CE7F7B50400009117001E00002802D185
:1037700072B6FEF7A3FB009B002B02D1236C002B3B
:1037800037D1022E02D1E36B012B36D1FFF7C8FDF2
:10379000A36BE26B0190934202D30025022E1FD14E
:1037A000320000992000FFF729FEA36C01331CD1E1
:1037B000636D002B07D031002000FFF758FE012871
:1037C0000AD001250CE0636A002BFAD020002430D7
:1037D000FEF7EEFE0028F4D0002FF2D001253D6068
:1037E0000198FFF7A2FD2800FEBDA36C0133A3647E
:1037F000E7E772B6FEF762FBC3E772B6FEF75EFB61
:10380000C4E7F0B585B004000F00019200930028D2
:1038100002D172B6FEF752FB002F03D1236C002BAE
:1038200000D08CE0FEF75CFF002805D1019B002B47
:1038300002D072B6FEF742FB00264EE0636AE560F6
:10384000002B6BD020002430FEF7B2FE002865D09C
:1038500062E0019D002D03D1FFF750FD002060E0E4
:10386000002E02D102A8FEF7DFFEFFF747FDFEF7AC
:10387000BDFCFFF737FD636C013301D100236364A6
:10388000A36C013301D10023A364FFF737FD01A925
:1038900002A8FEF7DBFE00284BD1FFF723FDA56B46
:1038A000FFF72CFD002D3ED12368002B06D1FFF73A
:1038B00019FD6068FEF724FFFFF720FD2000019945
:1038C0002430FEF727FE2000FFF711FEFEF724FD4F
:1038D000002801D1FFF7FAFC0126FFF703FDA36BD7
:1038E000002BB6D039002000E568FFF7EEFD009B05
:1038F000002BA3D1A36B013BA3632368002B02D150
:10390000FEF76CFF60602369002B07D020001030A9
:10391000FEF74EFE012801D1FFF7D8FCFFF7EEFCC1
:10392000012005B0F0BD2000FFF7E1FDFEF7F4FC3B
:10393000D2E72000FFF7DBFDFEF7EEFC8EE772B664
:10394000FEF7BCFA6EE70000002370B5064ADD0002
:10395000AC182668002E02D1A950606070BD0133FA
:10396000082BF4D1FAE7C046643D002070B504008E
:103970000D001600FFF7B6FC636C013301D1002384
:103980006364A36C013301D10023A364FFF7B6FC89
:10399000A36B002B05D12000320029002430FEF754
:1039A000DFFD2000FFF7A3FD70BD000002B47146EB
:1039B00049084900095C49008E4402BC7047C04672
:1039C000002243088B4274D303098B425FD3030A5E
:1039D0008B4244D3030B8B4228D3030C8B420DD371
:1039E000FF22090212BA030C8B4202D312120902FF
:1039F00065D0030B8B4219D300E0090AC30B8B423D
:103A000001D3CB03C01A5241830B8B4201D38B03EA
:103A1000C01A5241430B8B4201D34B03C01A52418F
:103A2000030B8B4201D30B03C01A5241C30A8B42D2
:103A300001D3CB02C01A5241830A8B4201D38B02BD
:103A4000C01A5241430A8B4201D34B02C01A524161
:103A5000030A8B4201D30B02C01A5241CDD2C309D3
:103A60008B4201D3CB01C01A524183098B4201D34F
:103A70008B01C01A524143098B4201D34B01C01A3A
:103A8000524103098B4201D30B01C01A5241C308B2
:103A90008B4201D3CB00C01A524183088B4201D321
:103AA0008B00C01A524143088B4201D34B00C01A0D
:103AB0005241411A00D20146524110467047FFE779
:103AC00001B5002000F006F802BDC0460029F7D07D
:103AD00076E770477047C04670B500260C4D0D4C18
:103AE000641BA410A64209D1002600F011F90A4D6A
:103AF0000A4C641BA410A64205D170BDB300EB585C
:103B000098470136EEE7B300EB5898470136F2E7E5
:103B1000EC000020EC000020EC000020FC00002065
:103B200010B5034B0100186800F06AF810BDC046DC
:103B30008800002010B5034B0100186800F016F84B
:103B400010BDC04688000020002310B59A4200D165
:103B500010BDCC5CC4540133F8E7030082189342D3
:103B600000D1704719700133F9E7000070B5050006
:103B7000002910D00C1F2368002B00DAE41828005D
:103B800000F0B5F81D4A1368002B05D1636014607E
:103B9000280000F0ADF870BDA34209D92168601873
:103BA0008342F3D118685B6841182160EEE7130087
:103BB0005A68002A01D0A242F9D919685818A042BF
:103BC0000BD120680918581819608242E0D110689A
:103BD0005268411819605A60DAE7A04202D90C23F2
:103BE0002B60D5E721686018824203D110685268C3
:103BF0004118216062605C60CAE7C046543D002005
:103C0000032370B5CD1C9D43083506000C2D1ED234
:103C10000C25A9421DD8300000F069F8254A146827
:103C20002100002919D1244C2368002B03D1300036
:103C300000F044F820602900300000F03FF8431CF9
:103C40002CD10C233000336000F052F803E0002D3B
:103C5000DFDA0C233360002070BD0B685B1B1AD4C5
:103C60000B2B03D90B60CC18256003E08C420ED1DE
:103C700063681360300000F03BF8200007220B302F
:103C8000231D9043C31AE7D05A42E250E4E74B6841
:103C900063600C00EEE70C004968C2E70323C41C14
:103CA0009C43A042E0D0211A300000F007F8431CEA
:103CB000DAD1C6E7543D0020583D0020002370B5FE
:103CC000064C05000800236000F014F8431C03D1E3
:103CD0002368002B00D02B6070BDC046A43D00209F
:103CE0000023C25C0133002AFBD1581E7047704785
:103CF00070470000044A1368002B03D018181060A6
:103D000018007047014BF9E75C3D0020A83D0020FA
:103D1000F8B5C046F8BC08BC9E467047F8B5C0462A
:103D2000F8BC08BC9E4670475461736B204D6F6EA3
:103D300069746F723A2053746172746564002A2A40
:103D40002A2A2A2A2A2A2A2A2A2A2A2A2A2A2A2AD3
:103D50002A2A2A2A2A2A2A2A2A2A2A2A005B537449
:103D600061636B73204672656520427974657320C8
:103D700052656D61696E696E675D20005468726599
:103D8000616420413A200054687265616420423ABF
:103D900020004D6F6E69746F7220537461636B3ACB
:103DA00020005461736B204D6F6E69746F723A20FE
:103DB00044656C6574696E6700546872656164205F
:103DC000413A20537461727465640054687265618D
:103DD0006420423A2053746172746564002020208C
:103DE000202020202050726F6772616D20737461F3
:103DF0007274202020202020202020005461736B2A
:103E00002041005461736B2042005461736B204D5C
:103E10006F6E69746F72000D0A00000000000000F0
:103E200000000000BD0A000051040000E30900008A
:103E30009F090000B9090000710B00008107000014
:103E400071070000050800009B0700006D070000D7
:103E500000000000000000003B0F00001D0E0000ED
:103E6000790D0000E10B0000F50B00004172647554
:103E7000696E6F204D302050726F000004030904FA
:103E800041726475696E6F204C4C43001201000250
:103E9000EF020140032A4F8000010102030149445F
:103EA0004C4500546D725100546D7220537663007E
:103EB000000000000B0000000200000004000000F1
:103EC000FF00FFFFFFFF0B00000000000A000000E2
:103ED0000200000004000000FF00FFFFFFFF0A00D7
:103EE0000000000008000000040000001C000000AA
:103EF000FF0000000000FF000000000009000000BB
:103F0000040000001C000000FF0001000100090087
:103F1000000000000E000000040000001C00000073
:103F2000FF00000300030E00000000000F0000006F
:103F3000040000001C000000FF00010301030F004B
:103F40000000000014000000050000002C0000002C
:103F5000FF00020002000400000000001500000045
:103F6000050000002C000000FF0003000300050016
:103F70000000000006000000040000001C0000001B
:103F8000FF00000100010600000000000700000023
:103F9000040000001C000000FF00010101010700F7
:103FA0000000000012000000040000001C000000DF
:103FB000FF000003000302000000000010000000EA
:103FC000040000001C000000FF00000200020000CE
:103FD0000000000013000000040000001C000000AE
:103FE000FF000103010303000000000011000000B6
:103FF000040000001C000000FF000102010201009B
:10400000FF00000000000000FF00000000000000B2
:10401000FF00FFFFFFFFFF000000000003000000A3
:104020000100000002000000FF00FFFFFFFFFF0093
:104030000000000016000000020000000400000064
:10404000FF00FFFFFFFF0600000000001700000058
:104050000200000004000000FF00FFFFFFFF070058
:10406000000000000C00000003000000040000003D
:10407000FF00FFFFFFFF0C00FF000000000000003A
:10408000FF00000000000000FF00FFFFFFFFFF0037
:10409000010000000B00000003000000040000000D
:1040A000FF00FFFFFFFF0B00010000000A000000FF
:1040B0000300000004000000FF00FFFFFFFF0A00F4
:1040C000FF00000000000000FF00000000000000F2
:1040D000FF00FFFFFFFFFF00FF00000000000000E7
:1040E000FF00000000000000FF00FFFFFFFFFF00D7
:1040F00000000000020000000100000002000000BB
:104100000000FFFFFFFF02000100000008000000A8
:1041100001000000020000000200FFFFFFFF080096
:104120000100000009000000010000000200000082
:104130000300FFFFFFFF0900000000000400000073
:1041400001000000020000000400FFFFFFFF040068
:104150000000000005000000010000000200000057
:104160000500FFFFFFFF0500010000000200000046
:1041700001000000020000000A00FFFFFFFF020034
:1041800001000000030000000B000000040000001C
:10419000FF00FFFFFFFFFF00000000001B0000000A
:1041A0000B00000004000000FF00FFFFFFFFFF0006
:1041B000000000001C0000000600000000000000DD
:1041C000FF00FFFFFFFFFF000000000018000000DD
:1041D0000600000000000000FF00FFFFFFFFFF00DF
:1041E00000000000190000000600000000000000B0
:1041F000FF00FFFFFFFFFF000100000016000000AE
:104200000300000000000000FF00FFFFFFFFFF00B1
:104210000100000017000000030000000000000083
:10422000FF00FFFFFFFFFF0000000000160000007E
:104230000200000000000000FF00FFFFFFFFFF0082
:104240000000000017000000020000000000000055
:10425000FF00FFFFFFFFFF00000000001300000051
:104260000200000000000000FF00FFFFFFFFFF0052
:10427000000000001000000002000000000000002C
:10428000FF00FFFFFFFFFF00000000001200000022
:104290000200000000000000FF00FFFFFFFFFF0022
:1042A00000000000110000000200000000000000FB
:1042B000FF00FFFFFFFFFF00000000000D000000F7
:1042C000040000000C000000FF000100FFFF0D00D3
:1042D0000000000015000000050000000C000000B8
:1042E000FF000300FFFFFF000000000006000000C9
:1042F000040000000C000000FF000001FFFFFF00B1
:104300000000000007000000040000000C00000096
:10431000FF000101FFFFFF0000000000020000009D
:1043200001000000020000001400FFFFFFFF020078
:104330000000000000000000FD2D0000292E0000FC
:10434000F92D00001D2E0000112E0000612E00002E
:08435000452E000000000000F2
:10435800FFFFFFFF000000008300000002000000D4
:1043680082000000000000000000000000000000C3
:1043780000000000000000000000000040420F00A4
:104388000D000000FFFFFFFF00C201000000080051
:10439800080B0002020200000904000001020200EA
:1043A8000005240010010424020605240600010566
:1043B800240101010705810310001009040100020E
:1043C8000A000000070502024000000705830240BA
:1043D80000000000FFFFFFFF8C000020000000002D
:1043E80000000000000000000000000000000000C5
:1043F80000000000000000000000000000000000B5
:1044080000000000000000000000000000000000A4
:104418000000000000000000000000000000000094
:104428000000000000000000000000000000000084
:10443800000000000000000000000000DD00000097
:10444800391B0000412B00001D2F0000B5000000A3
:044458000000000060
:040000030000036D89
:00000001FF
